{
  "_format": "hh3-artifact-1",
  "contractName": "Memonads",
  "sourceName": "contracts/Memonads.sol",
  "abi": [
    {
      "inputs": [],
      "name": "EmptyMemory",
      "type": "error"
    },
    {
      "inputs": [],
      "name": "EmptyName",
      "type": "error"
    },
    {
      "inputs": [
        {
          "internalType": "uint256",
          "name": "requested",
          "type": "uint256"
        },
        {
          "internalType": "uint256",
          "name": "available",
          "type": "uint256"
        }
      ],
      "name": "InsufficientCredits",
      "type": "error"
    },
    {
      "inputs": [
        {
          "internalType": "uint256",
          "name": "index",
          "type": "uint256"
        }
      ],
      "name": "InvalidExpertIndex",
      "type": "error"
    },
    {
      "inputs": [
        {
          "internalType": "uint256",
          "name": "index",
          "type": "uint256"
        }
      ],
      "name": "InvalidMemoryIndex",
      "type": "error"
    },
    {
      "inputs": [
        {
          "internalType": "uint8",
          "name": "rating",
          "type": "uint8"
        }
      ],
      "name": "InvalidRating",
      "type": "error"
    },
    {
      "inputs": [],
      "name": "NoSessionPaid",
      "type": "error"
    },
    {
      "inputs": [
        {
          "internalType": "uint256",
          "name": "valueWei",
          "type": "uint256"
        }
      ],
      "name": "NonIntegralTopUp",
      "type": "error"
    },
    {
      "inputs": [],
      "name": "NotExpertOwner",
      "type": "error"
    },
    {
      "inputs": [],
      "name": "NotRegistered",
      "type": "error"
    },
    {
      "inputs": [],
      "name": "SelfReview",
      "type": "error"
    },
    {
      "inputs": [],
      "name": "WithdrawTransferFailed",
      "type": "error"
    },
    {
      "inputs": [],
      "name": "ZeroAmount",
      "type": "error"
    },
    {
      "anonymous": false,
      "inputs": [
        {
          "indexed": true,
          "internalType": "address",
          "name": "user",
          "type": "address"
        },
        {
          "indexed": false,
          "internalType": "uint256",
          "name": "amount",
          "type": "uint256"
        },
        {
          "indexed": false,
          "internalType": "uint256",
          "name": "paidWei",
          "type": "uint256"
        }
      ],
      "name": "CreditsToppedUp",
      "type": "event"
    },
    {
      "anonymous": false,
      "inputs": [
        {
          "indexed": true,
          "internalType": "address",
          "name": "user",
          "type": "address"
        },
        {
          "indexed": false,
          "internalType": "uint256",
          "name": "amount",
          "type": "uint256"
        },
        {
          "indexed": false,
          "internalType": "uint256",
          "name": "refundWei",
          "type": "uint256"
        }
      ],
      "name": "CreditsWithdrawn",
      "type": "event"
    },
    {
      "anonymous": false,
      "inputs": [
        {
          "indexed": true,
          "internalType": "address",
          "name": "owner",
          "type": "address"
        },
        {
          "indexed": false,
          "internalType": "uint256",
          "name": "index",
          "type": "uint256"
        },
        {
          "indexed": false,
          "internalType": "string",
          "name": "name",
          "type": "string"
        },
        {
          "indexed": false,
          "internalType": "string",
          "name": "section",
          "type": "string"
        }
      ],
      "name": "ExpertCreated",
      "type": "event"
    },
    {
      "anonymous": false,
      "inputs": [
        {
          "indexed": false,
          "internalType": "uint256",
          "name": "index",
          "type": "uint256"
        }
      ],
      "name": "ExpertRemoved",
      "type": "event"
    },
    {
      "anonymous": false,
      "inputs": [
        {
          "indexed": true,
          "internalType": "address",
          "name": "user",
          "type": "address"
        },
        {
          "indexed": false,
          "internalType": "uint256",
          "name": "index",
          "type": "uint256"
        },
        {
          "indexed": false,
          "internalType": "string",
          "name": "section",
          "type": "string"
        },
        {
          "indexed": false,
          "internalType": "string",
          "name": "title",
          "type": "string"
        }
      ],
      "name": "MemoryAdded",
      "type": "event"
    },
    {
      "anonymous": false,
      "inputs": [
        {
          "indexed": true,
          "internalType": "address",
          "name": "user",
          "type": "address"
        },
        {
          "indexed": false,
          "internalType": "uint256",
          "name": "index",
          "type": "uint256"
        }
      ],
      "name": "MemoryDeleted",
      "type": "event"
    },
    {
      "anonymous": false,
      "inputs": [
        {
          "indexed": true,
          "internalType": "address",
          "name": "user",
          "type": "address"
        },
        {
          "indexed": false,
          "internalType": "uint256",
          "name": "index",
          "type": "uint256"
        }
      ],
      "name": "MemoryEdited",
      "type": "event"
    },
    {
      "anonymous": false,
      "inputs": [
        {
          "indexed": true,
          "internalType": "address",
          "name": "user",
          "type": "address"
        },
        {
          "indexed": false,
          "internalType": "string",
          "name": "name",
          "type": "string"
        }
      ],
      "name": "Registered",
      "type": "event"
    },
    {
      "anonymous": false,
      "inputs": [
        {
          "indexed": true,
          "internalType": "address",
          "name": "expert",
          "type": "address"
        },
        {
          "indexed": true,
          "internalType": "address",
          "name": "reviewer",
          "type": "address"
        },
        {
          "indexed": false,
          "internalType": "uint8",
          "name": "rating",
          "type": "uint8"
        },
        {
          "indexed": false,
          "internalType": "string",
          "name": "text",
          "type": "string"
        }
      ],
      "name": "ReviewPosted",
      "type": "event"
    },
    {
      "anonymous": false,
      "inputs": [
        {
          "indexed": true,
          "internalType": "address",
          "name": "visitor",
          "type": "address"
        },
        {
          "indexed": true,
          "internalType": "address",
          "name": "expert",
          "type": "address"
        },
        {
          "indexed": false,
          "internalType": "uint256",
          "name": "amountCredits",
          "type": "uint256"
        }
      ],
      "name": "SessionPaid",
      "type": "event"
    },
    {
      "inputs": [],
      "name": "WEI_PER_CREDIT",
      "outputs": [
        {
          "internalType": "uint256",
          "name": "",
          "type": "uint256"
        }
      ],
      "stateMutability": "view",
      "type": "function"
    },
    {
      "inputs": [
        {
          "internalType": "string",
          "name": "section",
          "type": "string"
        },
        {
          "internalType": "string",
          "name": "title",
          "type": "string"
        },
        {
          "internalType": "string",
          "name": "content",
          "type": "string"
        }
      ],
      "name": "addMemory",
      "outputs": [],
      "stateMutability": "nonpayable",
      "type": "function"
    },
    {
      "inputs": [
        {
          "internalType": "string",
          "name": "name",
          "type": "string"
        },
        {
          "internalType": "string",
          "name": "section",
          "type": "string"
        },
        {
          "internalType": "string",
          "name": "title",
          "type": "string"
        },
        {
          "internalType": "string",
          "name": "bio",
          "type": "string"
        },
        {
          "internalType": "uint256",
          "name": "priceCredits",
          "type": "uint256"
        }
      ],
      "name": "createExpert",
      "outputs": [
        {
          "internalType": "uint256",
          "name": "index",
          "type": "uint256"
        }
      ],
      "stateMutability": "nonpayable",
      "type": "function"
    },
    {
      "inputs": [
        {
          "internalType": "address",
          "name": "",
          "type": "address"
        }
      ],
      "name": "credits",
      "outputs": [
        {
          "internalType": "uint256",
          "name": "",
          "type": "uint256"
        }
      ],
      "stateMutability": "view",
      "type": "function"
    },
    {
      "inputs": [
        {
          "internalType": "uint256",
          "name": "index",
          "type": "uint256"
        }
      ],
      "name": "deleteMemory",
      "outputs": [],
      "stateMutability": "nonpayable",
      "type": "function"
    },
    {
      "inputs": [
        {
          "internalType": "uint256",
          "name": "index",
          "type": "uint256"
        },
        {
          "internalType": "string",
          "name": "section",
          "type": "string"
        },
        {
          "internalType": "string",
          "name": "title",
          "type": "string"
        },
        {
          "internalType": "string",
          "name": "content",
          "type": "string"
        }
      ],
      "name": "editMemory",
      "outputs": [],
      "stateMutability": "nonpayable",
      "type": "function"
    },
    {
      "inputs": [],
      "name": "expertCount",
      "outputs": [
        {
          "internalType": "uint256",
          "name": "",
          "type": "uint256"
        }
      ],
      "stateMutability": "view",
      "type": "function"
    },
    {
      "inputs": [],
      "name": "getExperts",
      "outputs": [
        {
          "components": [
            {
              "internalType": "address",
              "name": "owner",
              "type": "address"
            },
            {
              "internalType": "string",
              "name": "name",
              "type": "string"
            },
            {
              "internalType": "string",
              "name": "section",
              "type": "string"
            },
            {
              "internalType": "string",
              "name": "title",
              "type": "string"
            },
            {
              "internalType": "string",
              "name": "bio",
              "type": "string"
            },
            {
              "internalType": "uint256",
              "name": "priceCredits",
              "type": "uint256"
            },
            {
              "internalType": "uint64",
              "name": "createdAt",
              "type": "uint64"
            },
            {
              "internalType": "bool",
              "name": "active",
              "type": "bool"
            }
          ],
          "internalType": "struct Memonads.ExpertInfo[]",
          "name": "",
          "type": "tuple[]"
        }
      ],
      "stateMutability": "view",
      "type": "function"
    },
    {
      "inputs": [
        {
          "internalType": "address",
          "name": "user",
          "type": "address"
        }
      ],
      "name": "getMemories",
      "outputs": [
        {
          "components": [
            {
              "internalType": "string",
              "name": "section",
              "type": "string"
            },
            {
              "internalType": "string",
              "name": "title",
              "type": "string"
            },
            {
              "internalType": "string",
              "name": "content",
              "type": "string"
            },
            {
              "internalType": "uint64",
              "name": "createdAt",
              "type": "uint64"
            }
          ],
          "internalType": "struct Memonads.MemoryEntry[]",
          "name": "",
          "type": "tuple[]"
        }
      ],
      "stateMutability": "view",
      "type": "function"
    },
    {
      "inputs": [
        {
          "internalType": "address",
          "name": "expert",
          "type": "address"
        }
      ],
      "name": "getReviews",
      "outputs": [
        {
          "components": [
            {
              "internalType": "address",
              "name": "reviewer",
              "type": "address"
            },
            {
              "internalType": "uint8",
              "name": "rating",
              "type": "uint8"
            },
            {
              "internalType": "string",
              "name": "text",
              "type": "string"
            },
            {
              "internalType": "uint64",
              "name": "createdAt",
              "type": "uint64"
            }
          ],
          "internalType": "struct Memonads.Review[]",
          "name": "",
          "type": "tuple[]"
        }
      ],
      "stateMutability": "view",
      "type": "function"
    },
    {
      "inputs": [
        {
          "internalType": "address",
          "name": "user",
          "type": "address"
        }
      ],
      "name": "memoryCount",
      "outputs": [
        {
          "internalType": "uint256",
          "name": "",
          "type": "uint256"
        }
      ],
      "stateMutability": "view",
      "type": "function"
    },
    {
      "inputs": [
        {
          "internalType": "address",
          "name": "expert",
          "type": "address"
        },
        {
          "internalType": "uint256",
          "name": "amountCredits",
          "type": "uint256"
        }
      ],
      "name": "paySession",
      "outputs": [],
      "stateMutability": "nonpayable",
      "type": "function"
    },
    {
      "inputs": [
        {
          "internalType": "address",
          "name": "",
          "type": "address"
        }
      ],
      "name": "profiles",
      "outputs": [
        {
          "internalType": "string",
          "name": "name",
          "type": "string"
        },
        {
          "internalType": "uint64",
          "name": "registeredAt",
          "type": "uint64"
        },
        {
          "internalType": "bool",
          "name": "exists",
          "type": "bool"
        }
      ],
      "stateMutability": "view",
      "type": "function"
    },
    {
      "inputs": [
        {
          "internalType": "string",
          "name": "name",
          "type": "string"
        }
      ],
      "name": "register",
      "outputs": [],
      "stateMutability": "nonpayable",
      "type": "function"
    },
    {
      "inputs": [
        {
          "internalType": "uint256",
          "name": "index",
          "type": "uint256"
        }
      ],
      "name": "removeExpert",
      "outputs": [],
      "stateMutability": "nonpayable",
      "type": "function"
    },
    {
      "inputs": [
        {
          "internalType": "address",
          "name": "expert",
          "type": "address"
        },
        {
          "internalType": "uint8",
          "name": "rating",
          "type": "uint8"
        },
        {
          "internalType": "string",
          "name": "text",
          "type": "string"
        }
      ],
      "name": "review",
      "outputs": [],
      "stateMutability": "nonpayable",
      "type": "function"
    },
    {
      "inputs": [
        {
          "internalType": "address",
          "name": "expert",
          "type": "address"
        }
      ],
      "name": "reviewCount",
      "outputs": [
        {
          "internalType": "uint256",
          "name": "",
          "type": "uint256"
        }
      ],
      "stateMutability": "view",
      "type": "function"
    },
    {
      "inputs": [
        {
          "internalType": "address",
          "name": "",
          "type": "address"
        },
        {
          "internalType": "address",
          "name": "",
          "type": "address"
        }
      ],
      "name": "sessionsPaid",
      "outputs": [
        {
          "internalType": "uint256",
          "name": "",
          "type": "uint256"
        }
      ],
      "stateMutability": "view",
      "type": "function"
    },
    {
      "inputs": [],
      "name": "topUp",
      "outputs": [],
      "stateMutability": "payable",
      "type": "function"
    },
    {
      "inputs": [
        {
          "internalType": "uint256",
          "name": "amount",
          "type": "uint256"
        }
      ],
      "name": "withdraw",
      "outputs": [],
      "stateMutability": "nonpayable",
      "type": "function"
    }
  ],
  "bytecode": "0x6080604052348015600e575f5ffd5b506124358061001c5f395ff3fe60806040526004361061011b575f3560e01c806396b4b2da1161009d578063cccca6b711610062578063cccca6b71461036b578063dc29f1de1461037f578063e0003ece14610387578063f2c298be146103a6578063fe5ff468146103c5575f5ffd5b806396b4b2da146102b05780639879f7fb146102d1578063a88df16214610305578063bbe1562714610324578063c3438e6d14610352575f5ffd5b80632e1a7d4d116100e35780632e1a7d4d146101fb57806339c6cec51461021a57806341a1612c146102465780634ef5a0171461026557806383725e4e14610291575f5ffd5b8063055cab911461011f57806306fc31bf14610168578063160f28cc146101895780631b94dbe4146101bd5780632138e2d7146101dc575b5f5ffd5b34801561012a575f5ffd5b5061015561013936600461199a565b600460209081525f928352604080842090915290825290205481565b6040519081526020015b60405180910390f35b348015610173575f5ffd5b506101876101823660046119cb565b6103f0565b005b348015610194575f5ffd5b506101556101a33660046119f3565b6001600160a01b03165f9081526002602052604090205490565b3480156101c8575f5ffd5b506101876101d7366004611a57565b61050d565b3480156101e7575f5ffd5b506101876101f6366004611aba565b610716565b348015610206575f5ffd5b50610187610215366004611aba565b610804565b348015610225575f5ffd5b506102396102343660046119f3565b610934565b60405161015f9190611aff565b348015610251575f5ffd5b50610155610260366004611bb7565b610b6b565b348015610270575f5ffd5b5061028461027f3660046119f3565b610de6565b60405161015f9190611c88565b34801561029c575f5ffd5b506101876102ab366004611d1f565b610f1a565b3480156102bb575f5ffd5b506102c4611046565b60405161015f9190611dc4565b3480156102dc575f5ffd5b506101556102eb3660046119f3565b6001600160a01b03165f9081526003602052604090205490565b348015610310575f5ffd5b5061018761031f366004611aba565b61132f565b34801561032f575f5ffd5b5061034361033e3660046119f3565b61149e565b60405161015f93929190611ec5565b34801561035d575f5ffd5b50610155655af3107a400081565b348015610376575f5ffd5b50600554610155565b610187611555565b348015610392575f5ffd5b506101876103a1366004611ef7565b61161b565b3480156103b1575f5ffd5b506101876103c0366004611f93565b611829565b3480156103d0575f5ffd5b506101556103df3660046119f3565b5f6020819052908152604090205481565b805f0361041057604051631f2a200560e01b815260040160405180910390fd5b335f908152602081905260409020548082111561044f57604051630685c53760e41b815260048101839052602481018290526044015b60405180910390fd5b6104598282611fe5565b335f90815260208190526040808220929092556001600160a01b0385168152908120805484929061048b908490611ffe565b9091555050335f9081526004602090815260408083206001600160a01b038716845290915281208054600192906104c3908490611ffe565b90915550506040518281526001600160a01b0384169033907f15ad0d5603548af514c8c87d498519ef0e9c04713508645f96e8bdabf21cb4919060200160405180910390a3505050565b60018360ff161080610522575060058360ff16115b15610545576040516377f73f8960e01b815260ff84166004820152602401610446565b336001600160a01b0385160361056e57604051633c82b95f60e11b815260040160405180910390fd5b335f9081526004602090815260408083206001600160a01b038816845290915281205490036105b0576040516348293a6b60e01b815260040160405180910390fd5b60035f856001600160a01b03166001600160a01b031681526020019081526020015f206040518060800160405280336001600160a01b031681526020018560ff16815260200184848080601f0160208091040260200160405190810160405280939291908181526020018383808284375f9201829052509385525050506001600160401b03421660209283015283546001818101865594825290829020835160039092020180549284015160ff16600160a01b026001600160a81b03199093166001600160a01b03909216919091179190911781556040820151919290919082019061069c90826120bd565b50606091909101516002909101805467ffffffffffffffff19166001600160401b0390921691909117905560405133906001600160a01b038616907f3267d63d55e3d479020b8d18e9ae3697ba8faed67bfed1fa1b943fb6587fe3f6906107089087908790879061219a565b60405180910390a350505050565b600554811061073a576040516258235160e31b815260048101829052602401610446565b336001600160a01b031660058281548110610757576107576121bf565b5f9182526020909120600790910201546001600160a01b03161461078e576040516308ff9eb960e11b815260040160405180910390fd5b5f600582815481106107a2576107a26121bf565b905f5260205f20906007020160060160086101000a81548160ff0219169083151502179055507f11894c288345311efe291b25a675dc395fac702f05ab3dde59fc121484ef81cf816040516107f991815260200190565b60405180910390a150565b805f0361082457604051631f2a200560e01b815260040160405180910390fd5b335f908152602081905260409020548082111561085e57604051630685c53760e41b81526004810183905260248101829052604401610446565b6108688282611fe5565b335f9081526020819052604081209190915561088a655af3107a4000846121d3565b6040519091505f90339083908381818185875af1925050503d805f81146108cc576040519150601f19603f3d011682016040523d82523d5f602084013e6108d1565b606091505b50509050806108f3576040516369a4751b60e01b815260040160405180910390fd5b604080518581526020810184905233917fbc9c1ecdaf4057e6c6bf7a6abdc9f01b8a097b6b9c8fc18e3761b448ed1528a1910160405180910390a250505050565b6001600160a01b0381165f908152600260209081526040808320805482518185028101850190935280835260609492939192909184015b82821015610b60578382905f5260205f2090600402016040518060800160405290815f8201805461099b90612025565b80601f01602080910402602001604051908101604052809291908181526020018280546109c790612025565b8015610a125780601f106109e957610100808354040283529160200191610a12565b820191905f5260205f20905b8154815290600101906020018083116109f557829003601f168201915b50505050508152602001600182018054610a2b90612025565b80601f0160208091040260200160405190810160405280929190818152602001828054610a5790612025565b8015610aa25780601f10610a7957610100808354040283529160200191610aa2565b820191905f5260205f20905b815481529060010190602001808311610a8557829003601f168201915b50505050508152602001600282018054610abb90612025565b80601f0160208091040260200160405190810160405280929190818152602001828054610ae790612025565b8015610b325780601f10610b0957610100808354040283529160200191610b32565b820191905f5260205f20905b815481529060010190602001808311610b1557829003601f168201915b5050509183525050600391909101546001600160401b0316602091820152908252600192909201910161096b565b505050509050919050565b5f888103610b8c57604051632ef1310560e01b815260040160405180910390fd5b6005604051806101000160405280336001600160a01b031681526020018c8c8080601f0160208091040260200160405190810160405280939291908181526020018383808284375f92019190915250505090825250604080516020601f8d018190048102820181019092528b815291810191908c908c90819084018382808284375f92019190915250505090825250604080516020601f8b0181900481028201810190925289815291810191908a908a90819084018382808284375f92019190915250505090825250604080516020601f8901819004810282018101909252878152918101919088908890819084018382808284375f9201829052509385525050506020808301879052426001600160401b03166040840152600160609093018390528454808401865594825290819020835160079095020180546001600160a01b0319166001600160a01b0390951694909417845582015191929190820190610cf690826120bd565b5060408201516002820190610d0b90826120bd565b5060608201516003820190610d2090826120bd565b5060808201516004820190610d3590826120bd565b5060a082015160058083019190915560c08301516006909201805460e0909401511515600160401b0268ffffffffffffffffff199094166001600160401b039093169290921792909217905554610d8e90600190611fe5565b9050336001600160a01b03167f41037ab7f4d62f0d33f4808db93f2aa4578e46fd2c03ae04daa1f77e4e24c5dc828c8c8c8c604051610dd19594939291906121ea565b60405180910390a29998505050505050505050565b6001600160a01b0381165f908152600360209081526040808320805482518185028101850190935280835260609492939192909184015b82821015610b60575f848152602090819020604080516080810182526003860290920180546001600160a01b0381168452600160a01b900460ff169383019390935260018301805492939291840191610e7590612025565b80601f0160208091040260200160405190810160405280929190818152602001828054610ea190612025565b8015610eec5780601f10610ec357610100808354040283529160200191610eec565b820191905f5260205f20905b815481529060010190602001808311610ecf57829003601f168201915b5050509183525050600291909101546001600160401b03166020918201529082526001929092019101610e1d565b335f90815260026020526040902080548810610f4c576040516367b89de160e01b815260048101899052602401610446565b831580610f57575081155b15610f75576040516304f4310360e51b815260040160405180910390fd5b8686828a81548110610f8957610f896121bf565b905f5260205f2090600402015f019182610fa4929190612222565b508484828a81548110610fb957610fb96121bf565b905f5260205f2090600402016001019182610fd5929190612222565b508282828a81548110610fea57610fea6121bf565b905f5260205f2090600402016002019182611006929190612222565b5060405188815233907f6d1e502bf737355f5e15da251c2aaba2c79ca5a0dc0072d018dd93b71c60a9249060200160405180910390a25050505050505050565b60606005805480602002602001604051908101604052809291908181526020015f905b82821015611326575f8481526020908190206040805161010081019091526007850290910180546001600160a01b0316825260018101805492939192918401916110b290612025565b80601f01602080910402602001604051908101604052809291908181526020018280546110de90612025565b80156111295780601f1061110057610100808354040283529160200191611129565b820191905f5260205f20905b81548152906001019060200180831161110c57829003601f168201915b5050505050815260200160028201805461114290612025565b80601f016020809104026020016040519081016040528092919081815260200182805461116e90612025565b80156111b95780601f10611190576101008083540402835291602001916111b9565b820191905f5260205f20905b81548152906001019060200180831161119c57829003601f168201915b505050505081526020016003820180546111d290612025565b80601f01602080910402602001604051908101604052809291908181526020018280546111fe90612025565b80156112495780601f1061122057610100808354040283529160200191611249565b820191905f5260205f20905b81548152906001019060200180831161122c57829003601f168201915b5050505050815260200160048201805461126290612025565b80601f016020809104026020016040519081016040528092919081815260200182805461128e90612025565b80156112d95780601f106112b0576101008083540402835291602001916112d9565b820191905f5260205f20905b8154815290600101906020018083116112bc57829003601f168201915b505050918352505060058201546020808301919091526006909201546001600160401b0381166040830152600160401b900460ff1615156060909101529082526001929092019101611069565b50505050905090565b335f90815260026020526040902080548210611361576040516367b89de160e01b815260048101839052602401610446565b8054819061137190600190611fe5565b81548110611381576113816121bf565b905f5260205f20906004020181838154811061139f5761139f6121bf565b5f9182526020909120600490910201806113b983826122d6565b506001818101906113cc908401826122d6565b506002818101906113df908401826122d6565b506003918201549101805467ffffffffffffffff19166001600160401b03909216919091179055805481908061141757611417612396565b5f828152602081205f1990920191600483020190611435828261192d565b611442600183015f61192d565b61144f600283015f61192d565b50600301805467ffffffffffffffff19169055905560405182815233907f28b44f0467ac127378445403b94b5af213fd9e7e686786cea4849791c9385a25906020015b60405180910390a25050565b60016020525f90815260409020805481906114b890612025565b80601f01602080910402602001604051908101604052809291908181526020018280546114e490612025565b801561152f5780601f106115065761010080835404028352916020019161152f565b820191905f5260205f20905b81548152906001019060200180831161151257829003601f168201915b505050600190930154919250506001600160401b0381169060ff600160401b9091041683565b345f0361157557604051631f2a200560e01b815260040160405180910390fd5b611585655af3107a4000346123be565b156115a55760405163df8c93ab60e01b8152346004820152602401610446565b5f6115b6655af3107a4000346123d1565b335f908152602081905260408120805492935083929091906115d9908490611ffe565b90915550506040805182815234602082015233917f781aafd9511111a61631379f404733d20c16abfebc27fa5dec1a5244332719af910160405180910390a250565b335f9081526001602081905260409091200154600160401b900460ff166116555760405163aba4733960e01b815260040160405180910390fd5b821580611660575080155b1561167e576040516304f4310360e51b815260040160405180910390fd5b335f90815260026020908152604091829020825160a0601f8a0184900490930281018301909352608083018881529092918291908a908a90819085018382808284375f92019190915250505090825250604080516020601f8901819004810282018101909252878152918101919088908890819084018382808284375f92019190915250505090825250604080516020601f8701819004810282018101909252858152918101919086908690819084018382808284375f9201829052509385525050506001600160401b034216602092830152835460018101855593815220815191926004020190819061177290826120bd565b506020820151600182019061178790826120bd565b506040820151600282019061179c90826120bd565b50606091909101516003909101805467ffffffffffffffff19166001600160401b03909216919091179055335f818152600260205260409020547fa649e3a0a785236af491af9ea2bc97177bebf92af381c6db9646fbfaf7b209419061180490600190611fe5565b888888886040516118199594939291906121ea565b60405180910390a2505050505050565b5f81900361184a57604051632ef1310560e01b815260040160405180910390fd5b604051806060016040528083838080601f0160208091040260200160405190810160405280939291908181526020018383808284375f9201829052509385525050506001600160401b03421660208084019190915260016040938401819052338352905220815181906118bd90826120bd565b506020820151600190910180546040938401511515600160401b0268ffffffffffffffffff199091166001600160401b03909316929092179190911790555133907fb3eccf73f39b1c07947c780b2b39df2a1bb058b4037b0a42d0881ca1a028a1329061149290859085906123e4565b50805461193990612025565b5f825580601f10611948575050565b601f0160209004905f5260205f20908101906119649190611967565b50565b5b8082111561197b575f8155600101611968565b5090565b80356001600160a01b0381168114611995575f5ffd5b919050565b5f5f604083850312156119ab575f5ffd5b6119b48361197f565b91506119c26020840161197f565b90509250929050565b5f5f604083850312156119dc575f5ffd5b6119e58361197f565b946020939093013593505050565b5f60208284031215611a03575f5ffd5b611a0c8261197f565b9392505050565b5f5f83601f840112611a23575f5ffd5b5081356001600160401b03811115611a39575f5ffd5b602083019150836020828501011115611a50575f5ffd5b9250929050565b5f5f5f5f60608587031215611a6a575f5ffd5b611a738561197f565b9350602085013560ff81168114611a88575f5ffd5b925060408501356001600160401b03811115611aa2575f5ffd5b611aae87828801611a13565b95989497509550505050565b5f60208284031215611aca575f5ffd5b5035919050565b5f81518084528060208401602086015e5f602082860101526020601f19601f83011685010191505092915050565b5f602082016020835280845180835260408501915060408160051b8601019250602086015f5b82811015611bab57603f198786030184528151805160808752611b4b6080880182611ad1565b905060208201518782036020890152611b648282611ad1565b91505060408201518782036040890152611b7e8282611ad1565b6060938401516001600160401b031698909301979097525094506020938401939190910190600101611b25565b50929695505050505050565b5f5f5f5f5f5f5f5f5f60a08a8c031215611bcf575f5ffd5b89356001600160401b03811115611be4575f5ffd5b611bf08c828d01611a13565b909a5098505060208a01356001600160401b03811115611c0e575f5ffd5b611c1a8c828d01611a13565b90985096505060408a01356001600160401b03811115611c38575f5ffd5b611c448c828d01611a13565b90965094505060608a01356001600160401b03811115611c62575f5ffd5b611c6e8c828d01611a13565b9a9d999c50979a9699959894979660800135949350505050565b5f602082016020835280845180835260408501915060408160051b8601019250602086015f5b82811015611bab57603f19878603018452815160018060a01b03815116865260ff6020820151166020870152604081015160806040880152611cf36080880182611ad1565b6060928301516001600160401b0316979092019690965294506020938401939190910190600101611cae565b5f5f5f5f5f5f5f6080888a031215611d35575f5ffd5b8735965060208801356001600160401b03811115611d51575f5ffd5b611d5d8a828b01611a13565b90975095505060408801356001600160401b03811115611d7b575f5ffd5b611d878a828b01611a13565b90955093505060608801356001600160401b03811115611da5575f5ffd5b611db18a828b01611a13565b989b979a50959850939692959293505050565b5f602082016020835280845180835260408501915060408160051b8601019250602086015f5b82811015611bab57868503603f19018452815180516001600160a01b0316865260208101516101006020880152611e25610100880182611ad1565b905060408201518782036040890152611e3e8282611ad1565b91505060608201518782036060890152611e588282611ad1565b91505060808201518782036080890152611e728282611ad1565b91505060a082015160a088015260c0820151611e9960c08901826001600160401b03169052565b5060e08201519150611eaf60e088018315159052565b9550506020938401939190910190600101611dea565b606081525f611ed76060830186611ad1565b6001600160401b0394909416602083015250901515604090910152919050565b5f5f5f5f5f5f60608789031215611f0c575f5ffd5b86356001600160401b03811115611f21575f5ffd5b611f2d89828a01611a13565b90975095505060208701356001600160401b03811115611f4b575f5ffd5b611f5789828a01611a13565b90955093505060408701356001600160401b03811115611f75575f5ffd5b611f8189828a01611a13565b979a9699509497509295939492505050565b5f5f60208385031215611fa4575f5ffd5b82356001600160401b03811115611fb9575f5ffd5b611fc585828601611a13565b90969095509350505050565b634e487b7160e01b5f52601160045260245ffd5b81810381811115611ff857611ff8611fd1565b92915050565b80820180821115611ff857611ff8611fd1565b634e487b7160e01b5f52604160045260245ffd5b600181811c9082168061203957607f821691505b60208210810361205757634e487b7160e01b5f52602260045260245ffd5b50919050565b601f8211156120a457805f5260205f20601f840160051c810160208510156120825750805b601f840160051c820191505b818110156120a1575f815560010161208e565b50505b505050565b5f19600383901b1c191660019190911b1790565b81516001600160401b038111156120d6576120d6612011565b6120ea816120e48454612025565b8461205d565b6020601f821160018114612117575f83156121055750848201515b61210f84826120a9565b8555506120a1565b5f84815260208120601f198516915b828110156121465787850151825560209485019460019092019101612126565b508482101561216357868401515f19600387901b60f8161c191681555b50505050600190811b01905550565b81835281816020850137505f828201602090810191909152601f909101601f19169091010190565b60ff84168152604060208201525f6121b6604083018486612172565b95945050505050565b634e487b7160e01b5f52603260045260245ffd5b8082028115828204841417611ff857611ff8611fd1565b858152606060208201525f612203606083018688612172565b8281036040840152612216818587612172565b98975050505050505050565b6001600160401b0383111561223957612239612011565b61224d836122478354612025565b8361205d565b5f601f841160018114612279575f85156122675750838201355b61227186826120a9565b8455506120a1565b5f83815260208120601f198716915b828110156122a85786850135825560209485019460019092019101612288565b50868210156122c4575f1960f88860031b161c19848701351681555b505060018560011b0183555050505050565b8181036122e1575050565b6122eb8254612025565b6001600160401b0381111561230257612302612011565b612310816120e48454612025565b5f601f821160018114612333575f831561210557508482015461210f84826120a9565b5f8581526020808220868352908220601f198616925b838110156123695782860154825560019586019590910190602001612349565b508583101561238657818501545f19600388901b60f8161c191681555b5050505050600190811b01905550565b634e487b7160e01b5f52603160045260245ffd5b634e487b7160e01b5f52601260045260245ffd5b5f826123cc576123cc6123aa565b500690565b5f826123df576123df6123aa565b500490565b602081525f6123f7602083018486612172565b94935050505056fea2646970667358221220258d2cbfbd01b00773c7437bdf908432d50ce1083de4bdafcaf49412463ef72164736f6c634300081c0033",
  "linkReferences": {},
  "deployedLinkReferences": {},
  "immutableReferences": {},
  "inputSourceName": "project/contracts/Memonads.sol",
  "buildInfoId": "solc-0_8_28-a2f40cbcbfc869a2edc200373bef210b9972b4b6"
}