{
  "_format": "hh3-artifact-1",
  "contractName": "AIQueryCredits",
  "sourceName": "contracts/AIQueryCredits.sol",
  "abi": [
    {
      "inputs": [
        {
          "internalType": "uint256",
          "name": "requested",
          "type": "uint256"
        },
        {
          "internalType": "uint256",
          "name": "available",
          "type": "uint256"
        }
      ],
      "name": "InsufficientCredits",
      "type": "error"
    },
    {
      "inputs": [
        {
          "internalType": "uint256",
          "name": "valueWei",
          "type": "uint256"
        }
      ],
      "name": "NonIntegralTopUp",
      "type": "error"
    },
    {
      "inputs": [],
      "name": "WithdrawTransferFailed",
      "type": "error"
    },
    {
      "inputs": [],
      "name": "ZeroAmount",
      "type": "error"
    },
    {
      "anonymous": false,
      "inputs": [
        {
          "indexed": true,
          "internalType": "address",
          "name": "user",
          "type": "address"
        },
        {
          "indexed": false,
          "internalType": "uint256",
          "name": "amount",
          "type": "uint256"
        },
        {
          "indexed": false,
          "internalType": "uint256",
          "name": "remaining",
          "type": "uint256"
        }
      ],
      "name": "CreditsConsumed",
      "type": "event"
    },
    {
      "anonymous": false,
      "inputs": [
        {
          "indexed": true,
          "internalType": "address",
          "name": "user",
          "type": "address"
        },
        {
          "indexed": false,
          "internalType": "uint256",
          "name": "amount",
          "type": "uint256"
        },
        {
          "indexed": false,
          "internalType": "uint256",
          "name": "paidWei",
          "type": "uint256"
        }
      ],
      "name": "CreditsToppedUp",
      "type": "event"
    },
    {
      "anonymous": false,
      "inputs": [
        {
          "indexed": true,
          "internalType": "address",
          "name": "user",
          "type": "address"
        },
        {
          "indexed": false,
          "internalType": "uint256",
          "name": "amount",
          "type": "uint256"
        },
        {
          "indexed": false,
          "internalType": "uint256",
          "name": "refundWei",
          "type": "uint256"
        }
      ],
      "name": "CreditsWithdrawn",
      "type": "event"
    },
    {
      "inputs": [],
      "name": "CREDITS_PER_MON",
      "outputs": [
        {
          "internalType": "uint256",
          "name": "",
          "type": "uint256"
        }
      ],
      "stateMutability": "view",
      "type": "function"
    },
    {
      "inputs": [],
      "name": "WEI_PER_CREDIT",
      "outputs": [
        {
          "internalType": "uint256",
          "name": "",
          "type": "uint256"
        }
      ],
      "stateMutability": "view",
      "type": "function"
    },
    {
      "inputs": [
        {
          "internalType": "uint256",
          "name": "amount",
          "type": "uint256"
        }
      ],
      "name": "consume",
      "outputs": [],
      "stateMutability": "nonpayable",
      "type": "function"
    },
    {
      "inputs": [
        {
          "internalType": "address",
          "name": "",
          "type": "address"
        }
      ],
      "name": "credits",
      "outputs": [
        {
          "internalType": "uint256",
          "name": "",
          "type": "uint256"
        }
      ],
      "stateMutability": "view",
      "type": "function"
    },
    {
      "inputs": [],
      "name": "topUp",
      "outputs": [],
      "stateMutability": "payable",
      "type": "function"
    },
    {
      "inputs": [
        {
          "internalType": "uint256",
          "name": "amount",
          "type": "uint256"
        }
      ],
      "name": "withdraw",
      "outputs": [],
      "stateMutability": "nonpayable",
      "type": "function"
    }
  ],
  "bytecode": "0x6080604052348015600e575f5ffd5b506104df8061001c5f395ff3fe608060405260043610610054575f3560e01c80632e1a7d4d14610058578063483f31ab146100795780638cd5041914610098578063c3438e6d146100bf578063dc29f1de146100d3578063fe5ff468146100db575b5f5ffd5b348015610063575f5ffd5b506100776100723660046103e7565b610106565b005b348015610084575f5ffd5b506100776100933660046103e7565b610240565b3480156100a3575f5ffd5b506100ad61271081565b60405190815260200160405180910390f35b3480156100ca575f5ffd5b506100ad6102ee565b610077610305565b3480156100e6575f5ffd5b506100ad6100f53660046103fe565b5f6020819052908152604090205481565b805f0361012657604051631f2a200560e01b815260040160405180910390fd5b335f908152602081905260409020548082111561016557604051630685c53760e41b815260048101839052602481018290526044015b60405180910390fd5b335f908152602081905260408120838303905561018c612710670de0b6b3a7640000610453565b6101969084610466565b604080518581526020810183905291925033917fbc9c1ecdaf4057e6c6bf7a6abdc9f01b8a097b6b9c8fc18e3761b448ed1528a1910160405180910390a26040515f90339083908381818185875af1925050503d805f8114610213576040519150601f19603f3d011682016040523d82523d5f602084013e610218565b606091505b505090508061023a576040516369a4751b60e01b815260040160405180910390fd5b50505050565b805f0361026057604051631f2a200560e01b815260040160405180910390fd5b335f908152602081905260409020548082111561029a57604051630685c53760e41b8152600481018390526024810182905260440161015c565b335f818152602081815260409182902085850390819055825186815291820181905292917f1ae2491b2dce78a7711b40df08a239dbf1c6a582bbb57fde58b4b2cc3503d539910160405180910390a2505050565b610302612710670de0b6b3a7640000610453565b81565b345f0361032557604051631f2a200560e01b815260040160405180910390fd5b610339612710670de0b6b3a7640000610453565b6103439034610483565b156103635760405163df8c93ab60e01b815234600482015260240161015c565b5f610378612710670de0b6b3a7640000610453565b6103829034610453565b335f908152602081905260408120805492935083929091906103a5908490610496565b90915550506040805182815234602082015233917f781aafd9511111a61631379f404733d20c16abfebc27fa5dec1a5244332719af910160405180910390a250565b5f602082840312156103f7575f5ffd5b5035919050565b5f6020828403121561040e575f5ffd5b81356001600160a01b0381168114610424575f5ffd5b9392505050565b634e487b7160e01b5f52601260045260245ffd5b634e487b7160e01b5f52601160045260245ffd5b5f826104615761046161042b565b500490565b808202811582820484141761047d5761047d61043f565b92915050565b5f826104915761049161042b565b500690565b8082018082111561047d5761047d61043f56fea2646970667358221220966abbd5fb09e1b500cf8281a4294ec028d31ae95085245b1c6e3a986114447a64736f6c634300081c0033",
  "linkReferences": {},
  "deployedLinkReferences": {},
  "immutableReferences": {},
  "inputSourceName": "project/contracts/AIQueryCredits.sol",
  "buildInfoId": "solc-0_8_28-da317f715fe34647e8188a64757be8fe477ae9c8"
}